{
  "_format": "hh-sol-artifact-1",
  "contractName": "MyEpicGame",
  "sourceName": "contracts/MyEpicGame.sol",
  "abi": [
    {
      "inputs": [
        {
          "internalType": "string[]",
          "name": "characterNames",
          "type": "string[]"
        },
        {
          "internalType": "string[]",
          "name": "characterImageURIs",
          "type": "string[]"
        },
        {
          "internalType": "uint256[]",
          "name": "characterHP",
          "type": "uint256[]"
        },
        {
          "internalType": "uint256[]",
          "name": "characterAtk",
          "type": "uint256[]"
        }
      ],
      "stateMutability": "nonpayable",
      "type": "constructor"
    },
    {
      "anonymous": false,
      "inputs": [
        {
          "indexed": true,
          "internalType": "address",
          "name": "owner",
          "type": "address"
        },
        {
          "indexed": true,
          "internalType": "address",
          "name": "approved",
          "type": "address"
        },
        {
          "indexed": true,
          "internalType": "uint256",
          "name": "tokenId",
          "type": "uint256"
        }
      ],
      "name": "Approval",
      "type": "event"
    },
    {
      "anonymous": false,
      "inputs": [
        {
          "indexed": true,
          "internalType": "address",
          "name": "owner",
          "type": "address"
        },
        {
          "indexed": true,
          "internalType": "address",
          "name": "operator",
          "type": "address"
        },
        {
          "indexed": false,
          "internalType": "bool",
          "name": "approved",
          "type": "bool"
        }
      ],
      "name": "ApprovalForAll",
      "type": "event"
    },
    {
      "anonymous": false,
      "inputs": [
        {
          "indexed": true,
          "internalType": "address",
          "name": "from",
          "type": "address"
        },
        {
          "indexed": true,
          "internalType": "address",
          "name": "to",
          "type": "address"
        },
        {
          "indexed": true,
          "internalType": "uint256",
          "name": "tokenId",
          "type": "uint256"
        }
      ],
      "name": "Transfer",
      "type": "event"
    },
    {
      "inputs": [
        {
          "internalType": "address",
          "name": "to",
          "type": "address"
        },
        {
          "internalType": "uint256",
          "name": "tokenId",
          "type": "uint256"
        }
      ],
      "name": "approve",
      "outputs": [],
      "stateMutability": "nonpayable",
      "type": "function"
    },
    {
      "inputs": [
        {
          "internalType": "address",
          "name": "owner",
          "type": "address"
        }
      ],
      "name": "balanceOf",
      "outputs": [
        {
          "internalType": "uint256",
          "name": "",
          "type": "uint256"
        }
      ],
      "stateMutability": "view",
      "type": "function"
    },
    {
      "inputs": [
        {
          "internalType": "uint256",
          "name": "tokenId",
          "type": "uint256"
        }
      ],
      "name": "getApproved",
      "outputs": [
        {
          "internalType": "address",
          "name": "",
          "type": "address"
        }
      ],
      "stateMutability": "view",
      "type": "function"
    },
    {
      "inputs": [
        {
          "internalType": "address",
          "name": "owner",
          "type": "address"
        },
        {
          "internalType": "address",
          "name": "operator",
          "type": "address"
        }
      ],
      "name": "isApprovedForAll",
      "outputs": [
        {
          "internalType": "bool",
          "name": "",
          "type": "bool"
        }
      ],
      "stateMutability": "view",
      "type": "function"
    },
    {
      "inputs": [
        {
          "internalType": "uint256",
          "name": "_characterIndex",
          "type": "uint256"
        }
      ],
      "name": "mintCharacterNFT",
      "outputs": [],
      "stateMutability": "nonpayable",
      "type": "function"
    },
    {
      "inputs": [],
      "name": "name",
      "outputs": [
        {
          "internalType": "string",
          "name": "",
          "type": "string"
        }
      ],
      "stateMutability": "view",
      "type": "function"
    },
    {
      "inputs": [
        {
          "internalType": "uint256",
          "name": "",
          "type": "uint256"
        }
      ],
      "name": "nftHolderAttributes",
      "outputs": [
        {
          "internalType": "uint256",
          "name": "characterIndex",
          "type": "uint256"
        },
        {
          "internalType": "string",
          "name": "name",
          "type": "string"
        },
        {
          "internalType": "string",
          "name": "imageURI",
          "type": "string"
        },
        {
          "internalType": "uint256",
          "name": "HP",
          "type": "uint256"
        },
        {
          "internalType": "uint256",
          "name": "maxHP",
          "type": "uint256"
        },
        {
          "internalType": "uint256",
          "name": "atk",
          "type": "uint256"
        }
      ],
      "stateMutability": "view",
      "type": "function"
    },
    {
      "inputs": [
        {
          "internalType": "address",
          "name": "",
          "type": "address"
        }
      ],
      "name": "nftHolders",
      "outputs": [
        {
          "internalType": "uint256",
          "name": "",
          "type": "uint256"
        }
      ],
      "stateMutability": "view",
      "type": "function"
    },
    {
      "inputs": [
        {
          "internalType": "uint256",
          "name": "tokenId",
          "type": "uint256"
        }
      ],
      "name": "ownerOf",
      "outputs": [
        {
          "internalType": "address",
          "name": "",
          "type": "address"
        }
      ],
      "stateMutability": "view",
      "type": "function"
    },
    {
      "inputs": [
        {
          "internalType": "address",
          "name": "from",
          "type": "address"
        },
        {
          "internalType": "address",
          "name": "to",
          "type": "address"
        },
        {
          "internalType": "uint256",
          "name": "tokenId",
          "type": "uint256"
        }
      ],
      "name": "safeTransferFrom",
      "outputs": [],
      "stateMutability": "nonpayable",
      "type": "function"
    },
    {
      "inputs": [
        {
          "internalType": "address",
          "name": "from",
          "type": "address"
        },
        {
          "internalType": "address",
          "name": "to",
          "type": "address"
        },
        {
          "internalType": "uint256",
          "name": "tokenId",
          "type": "uint256"
        },
        {
          "internalType": "bytes",
          "name": "data",
          "type": "bytes"
        }
      ],
      "name": "safeTransferFrom",
      "outputs": [],
      "stateMutability": "nonpayable",
      "type": "function"
    },
    {
      "inputs": [
        {
          "internalType": "address",
          "name": "operator",
          "type": "address"
        },
        {
          "internalType": "bool",
          "name": "approved",
          "type": "bool"
        }
      ],
      "name": "setApprovalForAll",
      "outputs": [],
      "stateMutability": "nonpayable",
      "type": "function"
    },
    {
      "inputs": [
        {
          "internalType": "bytes4",
          "name": "interfaceId",
          "type": "bytes4"
        }
      ],
      "name": "supportsInterface",
      "outputs": [
        {
          "internalType": "bool",
          "name": "",
          "type": "bool"
        }
      ],
      "stateMutability": "view",
      "type": "function"
    },
    {
      "inputs": [],
      "name": "symbol",
      "outputs": [
        {
          "internalType": "string",
          "name": "",
          "type": "string"
        }
      ],
      "stateMutability": "view",
      "type": "function"
    },
    {
      "inputs": [
        {
          "internalType": "uint256",
          "name": "_tokenId",
          "type": "uint256"
        }
      ],
      "name": "tokenURI",
      "outputs": [
        {
          "internalType": "string",
          "name": "",
          "type": "string"
        }
      ],
      "stateMutability": "view",
      "type": "function"
    },
    {
      "inputs": [
        {
          "internalType": "address",
          "name": "from",
          "type": "address"
        },
        {
          "internalType": "address",
          "name": "to",
          "type": "address"
        },
        {
          "internalType": "uint256",
          "name": "tokenId",
          "type": "uint256"
        }
      ],
      "name": "transferFrom",
      "outputs": [],
      "stateMutability": "nonpayable",
      "type": "function"
    }
  ],
  "bytecode": "0x60806040523480156200001157600080fd5b506040516200425238038062004252833981810160405281019062000037919062000898565b6040518060400160405280600681526020017f4865726f657300000000000000000000000000000000000000000000000000008152506040518060400160405280600481526020017f4845524f000000000000000000000000000000000000000000000000000000008152508160009080519060200190620000bb92919062000600565b508060019080519060200190620000d492919062000600565b50505060005b8451811015620004f35760076040518060c0016040528083815260200187848151811062000131577f4e487b7100000000000000000000000000000000000000000000000000000000600052603260045260246000fd5b6020026020010151815260200186848151811062000178577f4e487b7100000000000000000000000000000000000000000000000000000000600052603260045260246000fd5b60200260200101518152602001858481518110620001bf577f4e487b7100000000000000000000000000000000000000000000000000000000600052603260045260246000fd5b6020026020010151815260200185848151811062000206577f4e487b7100000000000000000000000000000000000000000000000000000000600052603260045260246000fd5b602002602001015181526020018484815181106200024d577f4e487b7100000000000000000000000000000000000000000000000000000000600052603260045260246000fd5b60200260200101518152509080600181540180825580915050600190039060005260206000209060060201600090919091909150600082015181600001556020820151816001019080519060200190620002a992919062000600565b506040820151816002019080519060200190620002c892919062000600565b50606082015181600301556080820151816004015560a08201518160050155505060006007828154811062000326577f4e487b7100000000000000000000000000000000000000000000000000000000600052603260045260246000fd5b90600052602060002090600602016040518060c0016040529081600082015481526020016001820180546200035b9062000b92565b80601f0160208091040260200160405190810160405280929190818152602001828054620003899062000b92565b8015620003da5780601f10620003ae57610100808354040283529160200191620003da565b820191906000526020600020905b815481529060010190602001808311620003bc57829003601f168201915b50505050508152602001600282018054620003f59062000b92565b80601f0160208091040260200160405190810160405280929190818152602001828054620004239062000b92565b8015620004745780601f10620004485761010080835404028352916020019162000474565b820191906000526020600020905b8154815290600101906020018083116200045657829003601f168201915b5050505050815260200160038201548152602001600482015481526020016005820154815250509050620004db60405180606001604052806030815260200162004222603091398260200151836060015184604001516200051560201b620011001760201c565b50600181620004eb919062000af5565b9050620000da565b506200050b6006620005c160201b620011a21760201c565b5050505062000cb6565b620005bb84848484604051602401620005329493929190620009ba565b6040516020818303038152906040527f8d142cdd000000000000000000000000000000000000000000000000000000007bffffffffffffffffffffffffffffffffffffffffffffffffffffffff19166020820180517bffffffffffffffffffffffffffffffffffffffffffffffffffffffff8381831617835250505050620005d760201b60201c565b50505050565b6001816000016000828254019250508190555050565b60008151905060006a636f6e736f6c652e6c6f679050602083016000808483855afa5050505050565b8280546200060e9062000b92565b90600052602060002090601f0160209004810192826200063257600085556200067e565b82601f106200064d57805160ff19168380011785556200067e565b828001600101855582156200067e579182015b828111156200067d57825182559160200191906001019062000660565b5b5090506200068d919062000691565b5090565b5b80821115620006ac57600081600090555060010162000692565b5090565b6000620006c7620006c18462000a45565b62000a1c565b90508083825260208201905082856020860282011115620006e757600080fd5b60005b858110156200073657815167ffffffffffffffff8111156200070b57600080fd5b8086016200071a898262000854565b85526020850194506020840193505050600181019050620006ea565b5050509392505050565b600062000757620007518462000a74565b62000a1c565b905080838252602082019050828560208602820111156200077757600080fd5b60005b85811015620007ab578162000790888262000881565b8452602084019350602083019250506001810190506200077a565b5050509392505050565b6000620007cc620007c68462000aa3565b62000a1c565b905082815260208101848484011115620007e557600080fd5b620007f284828562000b5c565b509392505050565b600082601f8301126200080c57600080fd5b81516200081e848260208601620006b0565b91505092915050565b600082601f8301126200083957600080fd5b81516200084b84826020860162000740565b91505092915050565b600082601f8301126200086657600080fd5b815162000878848260208601620007b5565b91505092915050565b600081519050620008928162000c9c565b92915050565b60008060008060808587031215620008af57600080fd5b600085015167ffffffffffffffff811115620008ca57600080fd5b620008d887828801620007fa565b945050602085015167ffffffffffffffff811115620008f657600080fd5b6200090487828801620007fa565b935050604085015167ffffffffffffffff8111156200092257600080fd5b620009308782880162000827565b925050606085015167ffffffffffffffff8111156200094e57600080fd5b6200095c8782880162000827565b91505092959194509250565b6000620009758262000ad9565b62000981818562000ae4565b93506200099381856020860162000b5c565b6200099e8162000c8b565b840191505092915050565b620009b48162000b52565b82525050565b60006080820190508181036000830152620009d6818762000968565b90508181036020830152620009ec818662000968565b9050620009fd6040830185620009a9565b818103606083015262000a11818462000968565b905095945050505050565b600062000a2862000a3b565b905062000a36828262000bc8565b919050565b6000604051905090565b600067ffffffffffffffff82111562000a635762000a6262000c5c565b5b602082029050602081019050919050565b600067ffffffffffffffff82111562000a925762000a9162000c5c565b5b602082029050602081019050919050565b600067ffffffffffffffff82111562000ac15762000ac062000c5c565b5b62000acc8262000c8b565b9050602081019050919050565b600081519050919050565b600082825260208201905092915050565b600062000b028262000b52565b915062000b0f8362000b52565b9250827fffffffffffffffffffffffffffffffffffffffffffffffffffffffffffffffff0382111562000b475762000b4662000bfe565b5b828201905092915050565b6000819050919050565b60005b8381101562000b7c57808201518184015260208101905062000b5f565b8381111562000b8c576000848401525b50505050565b6000600282049050600182168062000bab57607f821691505b6020821081141562000bc25762000bc162000c2d565b5b50919050565b62000bd38262000c8b565b810181811067ffffffffffffffff8211171562000bf55762000bf462000c5c565b5b80604052505050565b7f4e487b7100000000000000000000000000000000000000000000000000000000600052601160045260246000fd5b7f4e487b7100000000000000000000000000000000000000000000000000000000600052602260045260246000fd5b7f4e487b7100000000000000000000000000000000000000000000000000000000600052604160045260246000fd5b6000601f19601f8301169050919050565b62000ca78162000b52565b811462000cb357600080fd5b50565b61355c8062000cc66000396000f3fe608060405234801561001057600080fd5b50600436106101005760003560e01c80637df124a111610097578063b88d4fde11610066578063b88d4fde146102d6578063c87b56dd146102f2578063e985e9c514610322578063f8b81ef71461035257610100565b80637df124a11461023757806395d89b411461026757806398da4c9514610285578063a22cb465146102ba57610100565b806323b872dd116100d357806323b872dd1461019f57806342842e0e146101bb5780636352211e146101d757806370a082311461020757610100565b806301ffc9a71461010557806306fdde0314610135578063081812fc14610153578063095ea7b314610183575b600080fd5b61011f600480360381019061011a91906123d2565b61036e565b60405161012c91906128e4565b60405180910390f35b61013d610450565b60405161014a91906128ff565b60405180910390f35b61016d60048036038101906101689190612424565b6104e2565b60405161017a919061287d565b60405180910390f35b61019d60048036038101906101989190612396565b610528565b005b6101b960048036038101906101b49190612290565b610640565b005b6101d560048036038101906101d09190612290565b6106a0565b005b6101f160048036038101906101ec9190612424565b6106c0565b6040516101fe919061287d565b60405180910390f35b610221600480360381019061021c919061222b565b610772565b60405161022e9190612b19565b60405180910390f35b610251600480360381019061024c919061222b565b61082a565b60405161025e9190612b19565b60405180910390f35b61026f610842565b60405161027c91906128ff565b60405180910390f35b61029f600480360381019061029a9190612424565b6108d4565b6040516102b196959493929190612b34565b60405180910390f35b6102d460048036038101906102cf919061235a565b610a20565b005b6102f060048036038101906102eb91906122df565b610a36565b005b61030c60048036038101906103079190612424565b610a98565b60405161031991906128ff565b60405180910390f35b61033c60048036038101906103379190612254565b610cb3565b60405161034991906128e4565b60405180910390f35b61036c60048036038101906103679190612424565b610d47565b005b60007f80ac58cd000000000000000000000000000000000000000000000000000000007bffffffffffffffffffffffffffffffffffffffffffffffffffffffff1916827bffffffffffffffffffffffffffffffffffffffffffffffffffffffff1916148061043957507f5b5e139f000000000000000000000000000000000000000000000000000000007bffffffffffffffffffffffffffffffffffffffffffffffffffffffff1916827bffffffffffffffffffffffffffffffffffffffffffffffffffffffff1916145b806104495750610448826111b8565b5b9050919050565b60606000805461045f90612e07565b80601f016020809104026020016040519081016040528092919081815260200182805461048b90612e07565b80156104d85780601f106104ad576101008083540402835291602001916104d8565b820191906000526020600020905b8154815290600101906020018083116104bb57829003601f168201915b5050505050905090565b60006104ed82611222565b6004600083815260200190815260200160002060009054906101000a900473ffffffffffffffffffffffffffffffffffffffff169050919050565b6000610533826106c0565b90508073ffffffffffffffffffffffffffffffffffffffff168373ffffffffffffffffffffffffffffffffffffffff1614156105a4576040517f08c379a000000000000000000000000000000000000000000000000000000000815260040161059b90612ad9565b60405180910390fd5b8073ffffffffffffffffffffffffffffffffffffffff166105c361126d565b73ffffffffffffffffffffffffffffffffffffffff1614806105f257506105f1816105ec61126d565b610cb3565b5b610631576040517f08c379a000000000000000000000000000000000000000000000000000000000815260040161062890612a79565b60405180910390fd5b61063b8383611275565b505050565b61065161064b61126d565b8261132e565b610690576040517f08c379a000000000000000000000000000000000000000000000000000000000815260040161068790612af9565b60405180910390fd5b61069b8383836113c3565b505050565b6106bb83838360405180602001604052806000815250610a36565b505050565b6000806002600084815260200190815260200160002060009054906101000a900473ffffffffffffffffffffffffffffffffffffffff169050600073ffffffffffffffffffffffffffffffffffffffff168173ffffffffffffffffffffffffffffffffffffffff161415610769576040517f08c379a000000000000000000000000000000000000000000000000000000000815260040161076090612ab9565b60405180910390fd5b80915050919050565b60008073ffffffffffffffffffffffffffffffffffffffff168273ffffffffffffffffffffffffffffffffffffffff1614156107e3576040517f08c379a00000000000000000000000000000000000000000000000000000000081526004016107da90612a59565b60405180910390fd5b600360008373ffffffffffffffffffffffffffffffffffffffff1673ffffffffffffffffffffffffffffffffffffffff168152602001908152602001600020549050919050565b60096020528060005260406000206000915090505481565b60606001805461085190612e07565b80601f016020809104026020016040519081016040528092919081815260200182805461087d90612e07565b80156108ca5780601f1061089f576101008083540402835291602001916108ca565b820191906000526020600020905b8154815290600101906020018083116108ad57829003601f168201915b5050505050905090565b60086020528060005260406000206000915090508060000154908060010180546108fd90612e07565b80601f016020809104026020016040519081016040528092919081815260200182805461092990612e07565b80156109765780601f1061094b57610100808354040283529160200191610976565b820191906000526020600020905b81548152906001019060200180831161095957829003601f168201915b50505050509080600201805461098b90612e07565b80601f01602080910402602001604051908101604052809291908181526020018280546109b790612e07565b8015610a045780601f106109d957610100808354040283529160200191610a04565b820191906000526020600020905b8154815290600101906020018083116109e757829003601f168201915b5050505050908060030154908060040154908060050154905086565b610a32610a2b61126d565b838361162a565b5050565b610a47610a4161126d565b8361132e565b610a86576040517f08c379a0000000000000000000000000000000000000000000000000000000008152600401610a7d90612af9565b60405180910390fd5b610a9284848484611797565b50505050565b60606000600860008481526020019081526020016000206040518060c001604052908160008201548152602001600182018054610ad490612e07565b80601f0160208091040260200160405190810160405280929190818152602001828054610b0090612e07565b8015610b4d5780601f10610b2257610100808354040283529160200191610b4d565b820191906000526020600020905b815481529060010190602001808311610b3057829003601f168201915b50505050508152602001600282018054610b6690612e07565b80601f0160208091040260200160405190810160405280929190818152602001828054610b9290612e07565b8015610bdf5780601f10610bb457610100808354040283529160200191610bdf565b820191906000526020600020905b815481529060010190602001808311610bc257829003601f168201915b50505050508152602001600382015481526020016004820154815260200160058201548152505090506000610c1782606001516117f3565b90506000610c2883608001516117f3565b90506000610c398460a001516117f3565b90506000610c7f8560200151610c4e896117f3565b8760400151878787604051602001610c6b969594939291906127b6565b6040516020818303038152906040526119a0565b9050600081604051602001610c94919061285b565b6040516020818303038152906040529050809650505050505050919050565b6000600560008473ffffffffffffffffffffffffffffffffffffffff1673ffffffffffffffffffffffffffffffffffffffff16815260200190815260200160002060008373ffffffffffffffffffffffffffffffffffffffff1673ffffffffffffffffffffffffffffffffffffffff16815260200190815260200160002060009054906101000a900460ff16905092915050565b6000610d536006611b5e565b9050610d5f3382611b6c565b6040518060c0016040528083815260200160078481548110610daa577f4e487b7100000000000000000000000000000000000000000000000000000000600052603260045260246000fd5b90600052602060002090600602016001018054610dc690612e07565b80601f0160208091040260200160405190810160405280929190818152602001828054610df290612e07565b8015610e3f5780601f10610e1457610100808354040283529160200191610e3f565b820191906000526020600020905b815481529060010190602001808311610e2257829003601f168201915b5050505050815260200160078481548110610e83577f4e487b7100000000000000000000000000000000000000000000000000000000600052603260045260246000fd5b90600052602060002090600602016002018054610e9f90612e07565b80601f0160208091040260200160405190810160405280929190818152602001828054610ecb90612e07565b8015610f185780601f10610eed57610100808354040283529160200191610f18565b820191906000526020600020905b815481529060010190602001808311610efb57829003601f168201915b5050505050815260200160078481548110610f5c577f4e487b7100000000000000000000000000000000000000000000000000000000600052603260045260246000fd5b906000526020600020906006020160030154815260200160078481548110610fad577f4e487b7100000000000000000000000000000000000000000000000000000000600052603260045260246000fd5b906000526020600020906006020160040154815260200160078481548110610ffe577f4e487b7100000000000000000000000000000000000000000000000000000000600052603260045260246000fd5b9060005260206000209060060201600501548152506008600083815260200190815260200160002060008201518160000155602082015181600101908051906020019061104c9291906120b7565b5060408201518160020190805190602001906110699291906120b7565b50606082015181600301556080820151816004015560a082015181600501559050506110ae6040518060600160405280602c81526020016134fb602c91398284611b8a565b80600960003373ffffffffffffffffffffffffffffffffffffffff1673ffffffffffffffffffffffffffffffffffffffff168152602001908152602001600020819055506110fc60066111a2565b5050565b61119c8484848460405160240161111a9493929190612921565b6040516020818303038152906040527f8d142cdd000000000000000000000000000000000000000000000000000000007bffffffffffffffffffffffffffffffffffffffffffffffffffffffff19166020820180517bffffffffffffffffffffffffffffffffffffffffffffffffffffffff8381831617835250505050611c29565b50505050565b6001816000016000828254019250508190555050565b60007f01ffc9a7000000000000000000000000000000000000000000000000000000007bffffffffffffffffffffffffffffffffffffffffffffffffffffffff1916827bffffffffffffffffffffffffffffffffffffffffffffffffffffffff1916149050919050565b61122b81611c52565b61126a576040517f08c379a000000000000000000000000000000000000000000000000000000000815260040161126190612ab9565b60405180910390fd5b50565b600033905090565b816004600083815260200190815260200160002060006101000a81548173ffffffffffffffffffffffffffffffffffffffff021916908373ffffffffffffffffffffffffffffffffffffffff160217905550808273ffffffffffffffffffffffffffffffffffffffff166112e8836106c0565b73ffffffffffffffffffffffffffffffffffffffff167f8c5be1e5ebec7d5bd14f71427d1e84f3dd0314c0f7b2291e5b200ac8c7c3b92560405160405180910390a45050565b60008061133a836106c0565b90508073ffffffffffffffffffffffffffffffffffffffff168473ffffffffffffffffffffffffffffffffffffffff16148061137c575061137b8185610cb3565b5b806113ba57508373ffffffffffffffffffffffffffffffffffffffff166113a2846104e2565b73ffffffffffffffffffffffffffffffffffffffff16145b91505092915050565b8273ffffffffffffffffffffffffffffffffffffffff166113e3826106c0565b73ffffffffffffffffffffffffffffffffffffffff1614611439576040517f08c379a0000000000000000000000000000000000000000000000000000000008152600401611430906129d9565b60405180910390fd5b600073ffffffffffffffffffffffffffffffffffffffff168273ffffffffffffffffffffffffffffffffffffffff1614156114a9576040517f08c379a00000000000000000000000000000000000000000000000000000000081526004016114a090612a19565b60405180910390fd5b6114b4838383611cbe565b6114bf600082611275565b6001600360008573ffffffffffffffffffffffffffffffffffffffff1673ffffffffffffffffffffffffffffffffffffffff168152602001908152602001600020600082825461150f9190612d1d565b925050819055506001600360008473ffffffffffffffffffffffffffffffffffffffff1673ffffffffffffffffffffffffffffffffffffffff16815260200190815260200160002060008282546115669190612c3c565b92505081905550816002600083815260200190815260200160002060006101000a81548173ffffffffffffffffffffffffffffffffffffffff021916908373ffffffffffffffffffffffffffffffffffffffff160217905550808273ffffffffffffffffffffffffffffffffffffffff168473ffffffffffffffffffffffffffffffffffffffff167fddf252ad1be2c89b69c2b068fc378daa952ba7f163c4a11628f55a4df523b3ef60405160405180910390a4611625838383611cc3565b505050565b8173ffffffffffffffffffffffffffffffffffffffff168373ffffffffffffffffffffffffffffffffffffffff161415611699576040517f08c379a000000000000000000000000000000000000000000000000000000000815260040161169090612a39565b60405180910390fd5b80600560008573ffffffffffffffffffffffffffffffffffffffff1673ffffffffffffffffffffffffffffffffffffffff16815260200190815260200160002060008473ffffffffffffffffffffffffffffffffffffffff1673ffffffffffffffffffffffffffffffffffffffff16815260200190815260200160002060006101000a81548160ff0219169083151502179055508173ffffffffffffffffffffffffffffffffffffffff168373ffffffffffffffffffffffffffffffffffffffff167f17307eab39ab6107e8899845ad3d59bd9653f200f220920489ca2b5937696c318360405161178a91906128e4565b60405180910390a3505050565b6117a28484846113c3565b6117ae84848484611cc8565b6117ed576040517f08c379a00000000000000000000000000000000000000000000000000000000081526004016117e4906129b9565b60405180910390fd5b50505050565b6060600082141561183b576040518060400160405280600181526020017f3000000000000000000000000000000000000000000000000000000000000000815250905061199b565b600082905060005b6000821461186d57808061185690612e6a565b915050600a826118669190612c92565b9150611843565b60008167ffffffffffffffff8111156118af577f4e487b7100000000000000000000000000000000000000000000000000000000600052604160045260246000fd5b6040519080825280601f01601f1916602001820160405280156118e15781602001600182028036833780820191505090505b5090505b60008514611994576001826118fa9190612d1d565b9150600a856119099190612eb3565b60306119159190612c3c565b60f81b818381518110611951577f4e487b7100000000000000000000000000000000000000000000000000000000600052603260045260246000fd5b60200101907effffffffffffffffffffffffffffffffffffffffffffffffffffffffffffff1916908160001a905350600a8561198d9190612c92565b94506118e5565b8093505050505b919050565b606060008251905060008114156119c95760405180602001604052806000815250915050611b59565b600060036002836119da9190612c3c565b6119e49190612c92565b60046119f09190612cc3565b90506000602082611a019190612c3c565b67ffffffffffffffff811115611a40577f4e487b7100000000000000000000000000000000000000000000000000000000600052604160045260246000fd5b6040519080825280601f01601f191660200182016040528015611a725781602001600182028036833780820191505090505b50905060006040518060600160405280604081526020016134bb604091399050600181016020830160005b86811015611b165760038101905062ffffff818a015116603f8160121c168401518060081b905060ff603f83600c1c1686015116810190508060081b905060ff603f8360061c1686015116810190508060081b905060ff603f831686015116810190508060e01b90508084526004840193505050611a9d565b506003860660018114611b305760028114611b4057611b4b565b613d3d60f01b6002830352611b4b565b603d60f81b60018303525b508484525050819450505050505b919050565b600081600001549050919050565b611b86828260405180602001604052806000815250611e5f565b5050565b611c24838383604051602401611ba29392919061297b565b6040516020818303038152906040527f969cdd03000000000000000000000000000000000000000000000000000000007bffffffffffffffffffffffffffffffffffffffffffffffffffffffff19166020820180517bffffffffffffffffffffffffffffffffffffffffffffffffffffffff8381831617835250505050611c29565b505050565b60008151905060006a636f6e736f6c652e6c6f679050602083016000808483855afa5050505050565b60008073ffffffffffffffffffffffffffffffffffffffff166002600084815260200190815260200160002060009054906101000a900473ffffffffffffffffffffffffffffffffffffffff1673ffffffffffffffffffffffffffffffffffffffff1614159050919050565b505050565b505050565b6000611ce98473ffffffffffffffffffffffffffffffffffffffff16611eba565b15611e52578373ffffffffffffffffffffffffffffffffffffffff1663150b7a02611d1261126d565b8786866040518563ffffffff1660e01b8152600401611d349493929190612898565b602060405180830381600087803b158015611d4e57600080fd5b505af1925050508015611d7f57506040513d601f19601f82011682018060405250810190611d7c91906123fb565b60015b611e02573d8060008114611daf576040519150601f19603f3d011682016040523d82523d6000602084013e611db4565b606091505b50600081511415611dfa576040517f08c379a0000000000000000000000000000000000000000000000000000000008152600401611df1906129b9565b60405180910390fd5b805181602001fd5b63150b7a0260e01b7bffffffffffffffffffffffffffffffffffffffffffffffffffffffff1916817bffffffffffffffffffffffffffffffffffffffffffffffffffffffff191614915050611e57565b600190505b949350505050565b611e698383611edd565b611e766000848484611cc8565b611eb5576040517f08c379a0000000000000000000000000000000000000000000000000000000008152600401611eac906129b9565b60405180910390fd5b505050565b6000808273ffffffffffffffffffffffffffffffffffffffff163b119050919050565b600073ffffffffffffffffffffffffffffffffffffffff168273ffffffffffffffffffffffffffffffffffffffff161415611f4d576040517f08c379a0000000000000000000000000000000000000000000000000000000008152600401611f4490612a99565b60405180910390fd5b611f5681611c52565b15611f96576040517f08c379a0000000000000000000000000000000000000000000000000000000008152600401611f8d906129f9565b60405180910390fd5b611fa260008383611cbe565b6001600360008473ffffffffffffffffffffffffffffffffffffffff1673ffffffffffffffffffffffffffffffffffffffff1681526020019081526020016000206000828254611ff29190612c3c565b92505081905550816002600083815260200190815260200160002060006101000a81548173ffffffffffffffffffffffffffffffffffffffff021916908373ffffffffffffffffffffffffffffffffffffffff160217905550808273ffffffffffffffffffffffffffffffffffffffff16600073ffffffffffffffffffffffffffffffffffffffff167fddf252ad1be2c89b69c2b068fc378daa952ba7f163c4a11628f55a4df523b3ef60405160405180910390a46120b360008383611cc3565b5050565b8280546120c390612e07565b90600052602060002090601f0160209004810192826120e5576000855561212c565b82601f106120fe57805160ff191683800117855561212c565b8280016001018555821561212c579182015b8281111561212b578251825591602001919060010190612110565b5b509050612139919061213d565b5090565b5b8082111561215657600081600090555060010161213e565b5090565b600061216d61216884612bc8565b612ba3565b90508281526020810184848401111561218557600080fd5b612190848285612dc5565b509392505050565b6000813590506121a78161345e565b92915050565b6000813590506121bc81613475565b92915050565b6000813590506121d18161348c565b92915050565b6000815190506121e68161348c565b92915050565b600082601f8301126121fd57600080fd5b813561220d84826020860161215a565b91505092915050565b600081359050612225816134a3565b92915050565b60006020828403121561223d57600080fd5b600061224b84828501612198565b91505092915050565b6000806040838503121561226757600080fd5b600061227585828601612198565b925050602061228685828601612198565b9150509250929050565b6000806000606084860312156122a557600080fd5b60006122b386828701612198565b93505060206122c486828701612198565b92505060406122d586828701612216565b9150509250925092565b600080600080608085870312156122f557600080fd5b600061230387828801612198565b945050602061231487828801612198565b935050604061232587828801612216565b925050606085013567ffffffffffffffff81111561234257600080fd5b61234e878288016121ec565b91505092959194509250565b6000806040838503121561236d57600080fd5b600061237b85828601612198565b925050602061238c858286016121ad565b9150509250929050565b600080604083850312156123a957600080fd5b60006123b785828601612198565b92505060206123c885828601612216565b9150509250929050565b6000602082840312156123e457600080fd5b60006123f2848285016121c2565b91505092915050565b60006020828403121561240d57600080fd5b600061241b848285016121d7565b91505092915050565b60006020828403121561243657600080fd5b600061244484828501612216565b91505092915050565b61245681612d51565b82525050565b61246581612d63565b82525050565b600061247682612bf9565b6124808185612c0f565b9350612490818560208601612dd4565b61249981612fa0565b840191505092915050565b60006124af82612c04565b6124b98185612c20565b93506124c9818560208601612dd4565b6124d281612fa0565b840191505092915050565b60006124e882612c04565b6124f28185612c31565b9350612502818560208601612dd4565b80840191505092915050565b600061251b600b83612c31565b915061252682612fb1565b600b82019050919050565b600061253e603283612c20565b915061254982612fda565b604082019050919050565b6000612561602583612c20565b915061256c82613029565b604082019050919050565b6000612584601c83612c20565b915061258f82613078565b602082019050919050565b60006125a7600e83612c31565b91506125b2826130a1565b600e82019050919050565b60006125ca602483612c20565b91506125d5826130ca565b604082019050919050565b60006125ed601983612c20565b91506125f882613119565b602082019050919050565b6000612610602983612c20565b915061261b82613142565b604082019050919050565b6000612633600483612c31565b915061263e82613191565b600482019050919050565b6000612656603e83612c20565b9150612661826131ba565b604082019050919050565b6000612679602083612c20565b915061268482613209565b602082019050919050565b600061269c603c83612c31565b91506126a782613232565b603c82019050919050565b60006126bf600a83612c31565b91506126ca82613281565b600a82019050919050565b60006126e2601883612c20565b91506126ed826132aa565b602082019050919050565b6000612705602183612c20565b9150612710826132d3565b604082019050919050565b6000612728601d83612c31565b915061273382613322565b601d82019050919050565b600061274b604383612c31565b91506127568261334b565b604382019050919050565b600061276e602e83612c20565b9150612779826133c0565b604082019050919050565b6000612791602383612c31565b915061279c8261340f565b602382019050919050565b6127b081612dbb565b82525050565b60006127c1826126b2565b91506127cd82896124dd565b91506127d88261250e565b91506127e482886124dd565b91506127ef8261273e565b91506127fb82876124dd565b91506128068261268f565b915061281282866124dd565b915061281d8261259a565b915061282982856124dd565b915061283482612784565b915061284082846124dd565b915061284b82612626565b9150819050979650505050505050565b60006128668261271b565b915061287282846124dd565b915081905092915050565b6000602082019050612892600083018461244d565b92915050565b60006080820190506128ad600083018761244d565b6128ba602083018661244d565b6128c760408301856127a7565b81810360608301526128d9818461246b565b905095945050505050565b60006020820190506128f9600083018461245c565b92915050565b6000602082019050818103600083015261291981846124a4565b905092915050565b6000608082019050818103600083015261293b81876124a4565b9050818103602083015261294f81866124a4565b905061295e60408301856127a7565b818103606083015261297081846124a4565b905095945050505050565b6000606082019050818103600083015261299581866124a4565b90506129a460208301856127a7565b6129b160408301846127a7565b949350505050565b600060208201905081810360008301526129d281612531565b9050919050565b600060208201905081810360008301526129f281612554565b9050919050565b60006020820190508181036000830152612a1281612577565b9050919050565b60006020820190508181036000830152612a32816125bd565b9050919050565b60006020820190508181036000830152612a52816125e0565b9050919050565b60006020820190508181036000830152612a7281612603565b9050919050565b60006020820190508181036000830152612a9281612649565b9050919050565b60006020820190508181036000830152612ab28161266c565b9050919050565b60006020820190508181036000830152612ad2816126d5565b9050919050565b60006020820190508181036000830152612af2816126f8565b9050919050565b60006020820190508181036000830152612b1281612761565b9050919050565b6000602082019050612b2e60008301846127a7565b92915050565b600060c082019050612b4960008301896127a7565b8181036020830152612b5b81886124a4565b90508181036040830152612b6f81876124a4565b9050612b7e60608301866127a7565b612b8b60808301856127a7565b612b9860a08301846127a7565b979650505050505050565b6000612bad612bbe565b9050612bb98282612e39565b919050565b6000604051905090565b600067ffffffffffffffff821115612be357612be2612f71565b5b612bec82612fa0565b9050602081019050919050565b600081519050919050565b600081519050919050565b600082825260208201905092915050565b600082825260208201905092915050565b600081905092915050565b6000612c4782612dbb565b9150612c5283612dbb565b9250827fffffffffffffffffffffffffffffffffffffffffffffffffffffffffffffffff03821115612c8757612c86612ee4565b5b828201905092915050565b6000612c9d82612dbb565b9150612ca883612dbb565b925082612cb857612cb7612f13565b5b828204905092915050565b6000612cce82612dbb565b9150612cd983612dbb565b9250817fffffffffffffffffffffffffffffffffffffffffffffffffffffffffffffffff0483118215151615612d1257612d11612ee4565b5b828202905092915050565b6000612d2882612dbb565b9150612d3383612dbb565b925082821015612d4657612d45612ee4565b5b828203905092915050565b6000612d5c82612d9b565b9050919050565b60008115159050919050565b60007fffffffff0000000000000000000000000000000000000000000000000000000082169050919050565b600073ffffffffffffffffffffffffffffffffffffffff82169050919050565b6000819050919050565b82818337600083830152505050565b60005b83811015612df2578082015181840152602081019050612dd7565b83811115612e01576000848401525b50505050565b60006002820490506001821680612e1f57607f821691505b60208210811415612e3357612e32612f42565b5b50919050565b612e4282612fa0565b810181811067ffffffffffffffff82111715612e6157612e60612f71565b5b80604052505050565b6000612e7582612dbb565b91507fffffffffffffffffffffffffffffffffffffffffffffffffffffffffffffffff821415612ea857612ea7612ee4565b5b600182019050919050565b6000612ebe82612dbb565b9150612ec983612dbb565b925082612ed957612ed8612f13565b5b828206905092915050565b7f4e487b7100000000000000000000000000000000000000000000000000000000600052601160045260246000fd5b7f4e487b7100000000000000000000000000000000000000000000000000000000600052601260045260246000fd5b7f4e487b7100000000000000000000000000000000000000000000000000000000600052602260045260246000fd5b7f4e487b7100000000000000000000000000000000000000000000000000000000600052604160045260246000fd5b6000601f19601f8301169050919050565b7f202d2d204e465420233a20000000000000000000000000000000000000000000600082015250565b7f4552433732313a207472616e7366657220746f206e6f6e20455243373231526560008201527f63656976657220696d706c656d656e7465720000000000000000000000000000602082015250565b7f4552433732313a207472616e736665722066726f6d20696e636f72726563742060008201527f6f776e6572000000000000000000000000000000000000000000000000000000602082015250565b7f4552433732313a20746f6b656e20616c7265616479206d696e74656400000000600082015250565b7f2c20226d61785f76616c7565223a000000000000000000000000000000000000600082015250565b7f4552433732313a207472616e7366657220746f20746865207a65726f2061646460008201527f7265737300000000000000000000000000000000000000000000000000000000602082015250565b7f4552433732313a20617070726f766520746f2063616c6c657200000000000000600082015250565b7f4552433732313a2061646472657373207a65726f206973206e6f74206120766160008201527f6c6964206f776e65720000000000000000000000000000000000000000000000602082015250565b7f7d205d7d00000000000000000000000000000000000000000000000000000000600082015250565b7f4552433732313a20617070726f76652063616c6c6572206973206e6f7420746f60008201527f6b656e206f776e6572206e6f7220617070726f76656420666f7220616c6c0000602082015250565b7f4552433732313a206d696e7420746f20746865207a65726f2061646472657373600082015250565b7f222c202261747472696275746573223a205b207b2274726169745f747970652260008201527f3a20224865616c746820506f696e7473222c202276616c7565223a2000000000602082015250565b7f7b226e616d65223a202200000000000000000000000000000000000000000000600082015250565b7f4552433732313a20696e76616c696420746f6b656e2049440000000000000000600082015250565b7f4552433732313a20617070726f76616c20746f2063757272656e74206f776e6560008201527f7200000000000000000000000000000000000000000000000000000000000000602082015250565b7f646174613a6170706c69636174696f6e2f6a736f6e3b6261736536342c000000600082015250565b7f222c20226465736372697074696f6e223a202245737461204e4654206461206160008201527f636573736f20616f206d6575206a6f676f204e465421222c2022696d6167652260208201527f3a20220000000000000000000000000000000000000000000000000000000000604082015250565b7f4552433732313a2063616c6c6572206973206e6f7420746f6b656e206f776e6560008201527f72206e6f7220617070726f766564000000000000000000000000000000000000602082015250565b7f7d2c207b202274726169745f74797065223a202261746b222c202276616c756560008201527f223a200000000000000000000000000000000000000000000000000000000000602082015250565b61346781612d51565b811461347257600080fd5b50565b61347e81612d63565b811461348957600080fd5b50565b61349581612d6f565b81146134a057600080fd5b50565b6134ac81612dbb565b81146134b757600080fd5b5056fe4142434445464748494a4b4c4d4e4f505152535455565758595a6162636465666768696a6b6c6d6e6f707172737475767778797a303132333435363738392b2f4d696e746f75204e465420632f20746f6b656e4964202573206520636861726163746572496e646578202573a26469706673582212201e6dd3575e10488bb21cdc4319d2245208cf041e2353377ddc68d54a5fbe541a64736f6c63430008040033706572736f6e6167656d20696e696369616c697a61646f3a20257320636f6d2025732064652048502c20696d67202573",
  "linkReferences": {},
  "deployedLinkReferences": {}
}